S0180000454D442D4170702D49434D32303934382E73726563DB
S21440000048510020ED454000BD464000BD464000FA
S214400010BD464000BD464000BD46400000000000D2
S214400020000000000000000000000000BD46400048
S214400030BD46400000000000BD464000153340006D
S214400040BD464000BD464000BD464000BD4640005F
S214400050BD464000BD464000BD464000BD4640004F
S214400060D92F4000BD464000000000003507400044
S2144000704D074000BD464000BD464000BD464000DE
S214400080BD464000BD464000BD464000BD4640001F
S214400090BD464000BD464000BD464000C932400017
S2144000A0BD464000BD464000BD464000BD464000FF
S2144000B0BD464000BD464000BD4640000000000032
S2144000C000000000000000000000000000000000EB
S2144000D000000000000000000000000000000000DB
S2144000E000000000000000000000000000000000CB
S2144000F0000000000000000000000000BD46400078
S214400100BD464000BD464000000000000000000024
S214400110000000000000000000000000000000009A
S214400120000000000000000000000000000000008A
S214400130000000000000000000000000000000007A
S214400140000000000000000010B5054C237833B9CD
S214400150044B13B10448AFF300800123237010BD55
S214400160080D002000000000DCD841000C4B43B1D5
S2144001700C480D4910B5AFF300800C48036823B90E
S21440018010BD0A48036833B97047094B002BF7D0B7
S214400190BDE810401847064B002BF5D0184700BF67
S2144001A000000000DCD841000C0D0020DCD84100E7
S2144001B00000000080B485B000AFF860B9607A6097
S2144001C07B68002B03D0FB68BA685A6602E0FB687F
S2144001D0BA681A6600BF1437BD465DF8047B7047A0
S2144001E080B483B000AF786039607B683A685A6301
S2144001F000BF0C37BD465DF8047B704780B487B0BF
S21440020000AFF860B9607A60FB687A685A64BB6889
S214400210B3F1805F2BD0B3F1805F05D8002B3FD081
S214400220B3F1006F0AD037E0B3F1405F38D0B3F196
S214400230605F35D0B3F1205F32D02DE0FB681B6F96
S2144002407B61FB681A6F7B68D9437B690B401A4019
S214400250FB681A67FB685B6F7B61FB685A6F7B685D
S214400260D9437B690B401A40FB685A6714E0FB6829
S2144002701B6F7B617A687B691A43FB681A67FB6869
S2144002805B6F7B61FB685A6F7B68D9437B690B4029
S2144002901A40FB685A6700BFFB687A685A6000E0FD
S2144002A000BF1C37BD465DF8047B704780B584B000
S2144002B000AFF860B9607A60B968F868194B98473B
S2144002C07B6803F001031A46B968F868164B9847EE
S2144002D07B6803F00A03002B03D0FB68BA681A62F7
S2144002E002E0FB68BA685A627B6803F00203002BA0
S2144002F004D0FB68BA68C3F8802008E07B6803F047
S2144003000803002B03D0FB68BA68C3F88420FB6858
S214400310BA685A61FB68BA681A6000BF1037BD46B3
S21440032080BD00BFDD044000B501400080B584B00C
S21440033000AFF860B9607A603B60B968F868124B05
S2144003409847BA69B968F868104B98473B68002BDD
S21440035003D0FB68BA681A6502E0FB68BA685A655B
S2144003607B68002B03D0FB68BA681A6302E0FB6820
S214400370BA685A63FB68BA681A61FB68BA681A605A
S21440038000BF1037BD4680BDDD044000B5014000CB
S21440039090B587B002AFF860B9607A603B60BB68E2
S2144003A0B3F1205F1ED0B3F1205F06D8B3F1006FE3
S2144003B00AD0B3F1805F07D03AE0B3F1405F17D080
S2144003C0B3F1605F14D033E07A68B968F8681C4BC4
S2144003D098473B6803F001031A467968F868194B5A
S2144003E0984727E03A687968F868174B984721E0BD
S2144003F0BB68B3F1605F0CBF01230023DBB21A4633
S2144004003B6803F00403002B14BF01230023DBB238
S21440041019463B6803F00103002B14BF0123002359
S214400420DBB200930B467968F868084CA04701E0B9
S214400430002300E0012318461437BD4690BD00BF98
S214400440FD014000B5014000AD0240002D034000D4
S21440045080B485B000AFF860B9607A607B6803F01E
S2144004601003002B20D0FB68BA68C3F8B0207B6826
S21440047003F02003002B04D0FB68BA68C3F8D420EE
S21440048003E0FB68BA68C3F8D0207B6803F04003FB
S214400490002B04D0FB68BA68C3F8C02008E0FB68AD
S2144004A0BA68C3F8C42003E0FB68BA68C3F8B4204F
S2144004B000BF1437BD465DF8047B704780B483B0F8
S2144004C000AF786039607B68DB6C7B683A681A649A
S2144004D000BF0C37BD465DF8047B704780B483B0E0
S2144004E000AF786039607B683A685A6400BF0C3762
S2144004F0BD465DF8047B704780B483B000AF78603B
S2144005007B68DB6C18460C37BD465DF8047B70474D
S21440051080B483B000AF78607B689B6C18460C371D
S214400520BD465DF8047B704780B483B000AF034699
S214400530FB71094997F907305B09FA7902F01F0207
S214400540012000FA02F241F8232000BF0C37BD46D6
S2144005505DF8047B704700BF00E100E080B483B0E4
S21440056000AF0346FB71094997F907305B09FA79F2
S21440057002F01F02012000FA02F2203341F8232045
S21440058000BF0C37BD465DF8047B704700E100E0D5
S21440059080B483B000AF0346FB71094997F9073032
S2144005A05B09FA7902F01F02012000FA02F260337A
S2144005B041F8232000BF0C37BD465DF8047B7047EA
S2144005C000E100E080B483B000AF03463960FB71C1
S2144005D097F90730002B0BDA0D49FB7903F00F0330
S2144005E0043B3A68D2B21201D2B20B441A7609E002
S2144005F0084997F907303A68D2B21201D2B20B4492
S21440060083F8002300BF0C37BD465DF8047B704777
S21440061000ED00E000E100E080B584B000AF786017
S21440062039607868264B9847F8607868254B984735
S2144006300246FB681340FB60FB68002B3CD000235F
S214400640BB6034E0204ABB681B0113441A683B6811
S2144006509A4226D11C4ABB681B01134404331A68CD
S214400660FB681340002B1CD0174ABB681B01134481
S2144006700C331B681449BA6812010A4410681249C0
S214400680BA6812010A4404321268114698470E4A64
S214400690BB681B01134404331B68DB43FA681340F2
S2144006A0FB60BB680133BB60BB68062B03D8FB68A6
S2144006B0002BC7D100E000BF00BF1037BD4680BD4D
S2144006C0F904400011054000240D002080B586B096
S2144006D000AFF860B9607A603B60134B1B68062B2E
S2144006E001D901231CE0104B1B681B010F4A134421
S2144006F07B617B69BA681A607B697A685A607B69F5
S2144007003A689A607B693A6ADA60074B1B6801333D
S214400710054A13603A687968F868054B984700239D
S21440072018461837BD4680BD940D0020240D002085
S2144007305104400080B500AF0B210248024B984759
S21440074000BF80BD000E0E401906400080B500AFC9
S2144007500C210248024B984700BF80BD00100E4057
S2144007601906400080B586B000AFF8600B467A6048
S214400770FB7200237B61F868134B984778614FF013
S214400780FF31F868114B9847F868114B984797F92E
S2144007900B3018460F4B984797F90B3018460E4BC0
S2144007A0984797F90B30796818460C4B984797F955
S2144007B00B3018460A4B98477969F868094B9847B2
S2144007C000BF1837BD4680BD11054000DD0440001F
S2144007D0F90440005D05400091054000C505400015
S2144007E029054000BD04400080B487B000AFF860E3
S2144007F0B9607A60FA68BB689B0113447B617B6989
S21440080002221A607B694FF0FF329A627B691B6A4C
S2144008107B697A685A6000BF1C37BD465DF8047B2A
S214400820704780B483B000AF786039607A683B68C0
S2144008309B01134405221A6000BF0C37BD465DF885
S214400840047B704780B483B000AF786039607A68C4
S2144008503B689B01134410331B6818460C37BD4653
S2144008605DF8047B704780B483B000AF7860396031
S2144008707A683B689B0113441C331B6818460C3748
S214400880BD465DF8047B704780B485B000AFF86025
S214400890B9607A60FA68BB689B0113441C337A6877
S2144008A01A6000BF1437BD465DF8047B704780B4BD
S2144008B087B000AFF860B9607A60FA68BB689B01A1
S2144008C013447B617B697A685A6200BF1C37BD4619
S2144008D05DF8047B704780B485B000AF78603960BF
S2144008E07A683B689B011344FB60FB68DB6A1846EA
S2144008F01437BD465DF8047B704780B485B000AFC2
S214400900786039607A683B689B011344FB60FB68FB
S2144009101B6A18461437BD465DF8047B704780B4A2
S2144009208DB000AFF860B9607A603B6002233B61EF
S21440093008237B612023BB618023FB61BB6BDB0B01
S2144009403B620023FB621AE0FB6A9B0007F1300221
S214400950134453F8203CBA68B2FBF3F3BB62BB6A5D
S2144009601B0C7B62FA68BB6A9A4201D9002323E0DB
S214400970FA687B6A9A4206D2FB6A0133FB62FB6ADC
S214400980042BE1D900E000BFFB6A042B01D9002309
S21440099012E07B68002B08D0FB6A9B0007F1300210
S2144009A0134453F8202C7B681A603B68002B02D017
S2144009B03B68FA6A1A60012318463437BD465DF82C
S2144009C0047B704780B483B000AF78607B680822B1
S2144009D01A607B6820221A607B6804221A6000BF77
S2144009E00C37BD465DF8047B7047000080B584B088
S2144009F000AF786039600023FB607B684FF0FF32C1
S214400A009A627B681B6A78680E4B984778680E4BEC
S214400A1098473B6859683B681B681A4678680B4B92
S214400A2098470346012B01D10123FB603B685B7A64
S214400A30012B02D17B6840221A60FB6818461037AB
S214400A40BD4680BD050D4000C5094000510A400026
S214400A5080B487B000AFF860B9607A6000237B61ED
S214400A60BB68164A934201D9012321E0BB685B006C
S214400A707A68B2FBF3F3033B3B6105E07B690133E5
S214400A807B613B695B083B613B69FF2B02D97B6915
S214400A90062BF3D93B69DAB23B691B029BB21A4379
S214400AA07B691B0403F4E0231A43FB681A610023A6
S214400AB018461C37BD465DF8047B7047801A060012
S214400AC080B485B000AF786039603B68002B01D1B8
S214400AD000231DE07B681B78FB603B68012B09DD2B
S214400AE0FB681B02FB607B6801331B781A46FB6879
S214400AF01343FB603B68022B09DDFB681B02FB606F
S214400B007B6802331B781A46FB681343FB60FB681E
S214400B1018461437BD465DF8047B704780B588B0EC
S214400B2000AF786039603B68DB68FB613B689B6878
S214400B30BB610023FB7543F698233B61FB69002BA2
S214400B4001D1012369E07B6800225A603B681B7C28
S214400B501B0403F4FE023B685B681B0203F440730D
S214400B60134343F480527B685A607B680022DA6005
S214400B703A683B685B68194610462A4B98470246D7
S214400B807B68DA60FB69012B05D17B6803221A601B
S214400B900123FB7534E07B6801221A600023FB7555
S214400BA02EE07B681B6AFB60FB6803F48073002BB7
S214400BB001D0052331E03B695A1E3A61002B01D132
S214400BC009232AE0FB6803F00203002B00D117E05C
S214400BD0FB69022B07D1FB7D002B04D17B680222E8
S214400BE01A600123FB75BB695A1CBA617A68126B9E
S214400BF0D2B21A70FB69013BFB6143F698233B6116
S214400C00FB69002BCDD100BF7B681B6A03F0010354
S214400C10002BF9D07B681B6A002318462037BD4658
S214400C2080BD00BFC10A400080B586B000AF786086
S214400C3039603B68DB687B613B689B683B617B69EE
S214400C40002B01D1012356E07B6800225A603B68A6
S214400C501B7C1B0403F4FE023B685B681B0203F428
S214400C6040731A437B685A607B680022DA603A68B1
S214400C703B685B6819461046214B984702467B689E
S214400C80DA6019E07B681B6AFB60FB6803F48073DC
S214400C90002B01D005232EE0FB6803F00403002B55
S214400CA000D109E03B695A1C3A611B781A467B68BA
S214400CB05A637B69013B7B617B69002BE2D17B6891
S214400CC01B6AFB60FB6803F48073002B01D005238E
S214400CD011E0FB6803F00403002B00D1EFE700BFF0
S214400CE07B6802221A6000BF7B681B6A03F0010320
S214400CF0002BF9D0002318461837BD4680BD00BFEC
S214400D00C10A400080B483B000AF78607B68802220
S214400D101A607B681B6B00BF0C37BD465DF8047BD2
S214400D207047000080B483B000AF03463960FB7163
S214400D3097F90730002B0BDA0D49FB7903F00F03C8
S214400D40043B3A68D2B21201D2B20B441A7609E09A
S214400D50084997F907303A68D2B21201D2B20B442A
S214400D6083F8002300BF0C37BD465DF8047B704710
S214400D7000ED00E000E100E080B582B000AF7860B2
S214400D807B68013BB3F1807F01D301230FE00A4A21
S214400D907B68013B53600F214FF0FF30074B98476D
S214400DA0054B00229A60044B07221A60002318461F
S214400DB00837BD4680BD00BF10E000E0250D40006E
S214400DC080B483B000AF78607B68072B25D801A23B
S214400DD052F823F0F50D4000FB0D4000010E400098
S214400DE0070E40000B0E40000F0E4000130E400052
S214400DF0170E40004FF4FA4310E04FF400430DE066
S214400E004FF400430AE0084B08E0084B06E0084B66
S214400E1004E0002302E0002300E0002318460C37DD
S214400E20BD465DF8047B704700127A000024F4004B
S214400E3000366E0180B500AF0120044B984702464D
S214400E4040F64E6303FB02F3184680BDC10D4000DA
S214400E5080B500AF024B98470346184680BD00BF9A
S214400E60350E400080B582B000AF78607868034B9E
S214400E70984700BF0837BD4680BD00BF01444000CC
S214400E8080B48BB000AF78607B687B627B6A3B62E5
S214400E903B6AFB61FB695B09BB61BB6903F50013F9
S214400EA003F207735B027B617B6A3B613B6903F03D
S214400EB01F03012202FA03F3FB607B69DA6B7B6A4D
S214400EC0BB60BB6803F01F03012101FA03F3134024
S214400ED0002B03D07B69FA685A6302E07B69FA68A4
S214400EE01A6300BF2C37BD465DF8047B7047000090
S214400EF080B582B000AF78600B46FB707B683E4A98
S214400F0093420AD100BFFB78194678683B4B984716
S214400F100346002BF7D1012369E07B68384A9342A9
S214400F200AD100BFFB7819467868344B9847034689
S214400F30002BF7D101235AE07B68324A93420AD10C
S214400F4000BFFB78194678682C4B98470346002B21
S214400F50F7D101234BE07B682B4A93420AD100BF6E
S214400F60FB7819467868254B98470346002BF7D1FF
S214400F7001233CE07B68254A93420AD100BFFB78B8
S214400F80194678681D4B98470346002BF7D1012336
S214400F902DE07B681E4A93420AD100BFFB78194673
S214400FA07868164B98470346002BF7D101231EE07E
S214400FB07B68184A93420AD100BFFB781946786886
S214400FC00E4B98470346002BF7D101230FE07B6872
S214400FD0114A93420AD100BFFB7819467868074BFE
S214400FE098470346002BF7D1012300E0002318461C
S214400FF00837BD4680BD00BF00C20040D93540001E
S21440100000020240004202400082014000C201400D
S214401010008200400002044000420340B0B582B067
S21440102000AF786039604FF49F6200217868094BC2
S21440103098477A683B6814461D460FCD0FC495E81E
S214401040030084E80300044A7B68136000BF083747
S214401050BD46B0BD414241001821002080B483B057
S21440106000AF78607B6800221A607B6800225A6076
S2144010707B6800229A6000BF0C37BD465DF8047B53
S2144010807047000090B587B002AFF860B9607A60EC
S2144010903B60BB6A019397F8243000933B6A3A68FA
S2144010A0B968F868024CA04700BF1437BD4690BDEB
S2144010B025FC400080B483B000AF78607B681A8916
S2144010C07B68DB889A4207D17B68DA7A7B689B7AB2
S2144010D09A4201D1012300E0002318460C37BD4652
S2144010E05DF8047B7047000080B582B000AF786042
S2144010F00620034B984700BF0837BD4680BD00BF5B
S214401100810E400098B500AF034B984703460C4607
S2144011101846214698BD00BF2D32400080B584B0A9
S21440112000AF78604FF0FF33FB6072B60E480F4B4F
S21440113098470346002B04D10B480D4B984703466F
S214401140FB6062B6FB68B3F1FF3F05D0FB68DBB2DD
S21440115019460848084B9847FB68B3F1FF3FE1D172
S21440116000BF1037BD4680BD68200020B510400047
S2144011700FFE4000201B0020ADF5400090B58DB01E
S21440118004AF0023FB614B4B98474B4B98471720C7
S2144011904A4B98474A4B98474A4905204A4B9847F6
S2144011A04A4903204A4B98474A490320484B9847A8
S2144011B0494A4A490320464B984744490320444BF2
S2144011C098474748474B9847474B9847474B984719
S2144011D00246474BA3FB02239B091846454B9847BC
S2144011E000237B60444BBB60444BFB604FF4804322
S2144011F03B614FF480437B61414B98470346BB615C
S2144012003B1D19463F48404B98470C2203213D481A
S2144012103E4B98473E4B9847F8613E4B98470246B0
S214401220FB691344FB613C49F8693C4B98470022F4
S2144012303B493C483C4B984700223C493C483D4B48
S21440124098473D483D4B984701230293012301931D
S214401250002300933A4B3B4A3B4937483B4CA04718
S2144012604FF47A7302930223019300230093384B82
S214401270384A39493048354CA04700213648374B24
S214401280984700213048354B98471420344B9847B0
S2144012902948344B9847344B1B68012BF8D1334AC6
S2144012A000211848324B984772B62F4B00221A60DE
S2144012B062B6EDE7C13B40004D404000650E400041
S2144012C0412F400075134000D5FC4000887F410008
S2144012D019FD4000A47F4100C07F4100C87F410007
S2144012E0C92E4000E12E400049314000510E4000DA
S2144012F0D34D6210790D4000393340006D334000C5
S21440130039314000301B00201D104000D9484000B5
S21440131069174000A1164000D87F4100A918400038
S21440132081194000201B00207DF54000E518400054
S214401330881800205DEF4000482000205D104000E7
S2144013401D114000F87F4100C00D00208510400070
S214401350E91040000C8041009C0D0020B5FC400088
S21440136071314000F5FB4000980D0020791A40008E
S21440137039B04000B0B58CB000AFF860B9607A6064
S2144013800023BB622F4BFB622F4B07F110041D4618
S2144013900FCD0FC495E8030084E80300BB6A294AD2
S2144013A09818BB6AC3F58071FB689B0007F1300252
S2144013B0134453F8203C254A254CA04703461A467A
S2144013C0BB6A1344BB62BB6AFF2B32D8BB6A1D4A5A
S2144013D09818BB6AC3F580717B68BA681D4CA047F5
S2144013E003461A46BB6A1344BB62BB6AFF2B22D82D
S2144013F0BB6A144A9818BB6AC3F58073164A1946E6
S214401400134B984703461A46BB6A1344BB62BB6AF3
S214401410FF2B12D808E0FB6A1B7819460F48104B82
S2144014209847FB6A0133FB62FB6A1B78002BF2D1BC
S21440143004E000BF02E000BF00E000BF3037BD461A
S214401440B0BD00BFE40D0020508041001C8041002C
S214401450DD42410081584100208041000042034067
S214401460F10E400000000000F0B583B000AF786099
S2144014707B68002B24D07B681D464FF00006204B2F
S214401480984703464FF0000403FB06F105FB04F2C1
S2144014900A44A5FB03342244144617A2D2E900129C
S2144014A05D1844EB020628463146164C164A4FF065
S2144014B00003A04703460C461846144B984716E0D0
S2144014C00F4B984703464FF000040BA2D2E9001298
S2144014D05D1844EB0206284631460A4C0A4A4FF04D
S2144014E00003A04703460C461846084B984700BFE3
S2144014F00C37BD46F0BD00BF7F9FD5000000000002
S214401500510E4000793C4100809FD50001000020EC
S21440151080B400AF00231846BD465DF8047B704794
S21440152080B582B000AF78607B68DBB2194607486A
S214401530074B98470346002B01D07B6801E04FF0ED
S214401540FF3318460837BD4680BD00BF00C2004086
S214401550F10E400080B483B000AF78607B68072B04
S21440156025D801A252F823F0891540008F15400077
S214401570951540009B1540009F154000A315400060
S214401580A7154000AB1540004FF4FA4310E04FF467
S21440159000430DE04FF400430AE0084B08E0084BD8
S2144015A006E0084B04E0002302E0002300E00023AE
S2144015B018460C37BD465DF8047B704700127A002B
S2144015C00024F40000366E0180B500AF0120044BC5
S2144015D09847024640F64E6303FB02F3184680BD2A
S2144015E05515400080B500AF024B98470346184655
S2144015F080BD00BFC9154000F0B583B000AF78602D
S2144016007B68002B24D07B681D464FEAE576204B4E
S214401610984703464FF0000403FB06F105FB04F22F
S2144016200A44A5FB03342244144617A2D2E900120A
S2144016305D1844EB020628463146164C164A4FF0D3
S2144016400003A04703460C461846144B984716E03E
S2144016500F4B984703464FF000040BA2D2E9001206
S2144016605D1844EB0206284631460A4C0A4A4FF0BB
S2144016700003A04703460C461846084B984700BF51
S2144016800C37BD46F0BD00BF7F9FD5000000000070
S214401690E5154000793C4100809FD50001000020C0
S2144016A080B582B000AF00237B6008490320084B1A
S2144016B0984743F2DD7207490748084B98477860D9
S2144016C07B6818460837BD4680BD00BF6CB84100F1
S2144016D019FD400068804100301B002045AC4000AA
S2144016E080B582B000AF00237B6009E07B68DBB248
S2144016F01A4607490748084B98477B6801337B6082
S2144017007B68132BF2DD00BF0837BD4680BD00BFA7
S21440171048B84100301B002045AA400080B500AFC5
S2144017200D4A02210D480E4B98470B4A00210B48A4
S2144017300B4B98470B4A03210848094B9847094AE0
S21440174001210648064B9847064A05210348044BA4
S214401750984700BF80BD00BFFC000020301B002023
S214401760D9A840000001002080B582B000AFFF231A
S214401770BB70BB1C19463848384B98477860384B86
S21440178098470346002B0AD1BB78FF2B07D1354B31
S2144017909847BB1C19463048304B98477860BB7812
S2144017A01A4631490320314B98470023FB7006E028
S2144017B0EA22BB789A4206D0FB780133FB70FB786E
S2144017C0002BF5D000E000BFFB78012B07D1BB789B
S2144017D01A4627490120254B98477B6837E01E4824
S2144017E0244B984724490420204B984743F2DD7207
S2144017F022491948224B984778607B68002B05D0D1
S21440180020490120194B98477B6820E01E49032059
S214401810164B98470C2203210F481C4B98470E48FE
S2144018201B4B984778607B68B3F1FF3F03D119495B
S21440183001200E4B9847184B9847184B9847064838
S214401840174B984717490420084B984700231846DB
S2144018500837BD4680BD00BF301B002055A740005E
S21440186039314000593140007CB8410019FD4000F4
S2144018709CB8410079A74000BCB841006880410050
S21440188085A84000E0B8410010B94100D948400062
S21440189009AB400028B94100E11640001D17400042
S2144018A011A8400040B9410090B585B002AF7860BD
S2144018B039607B68002B0BDA7868074B98470346FD
S2144018C000937B683A6805490120054CA047FEE72F
S2144018D000BF0C37BD4690BD19F9400054B94100D1
S2144018E019FD400090B589B002AFBA607B600346F0
S2144018F0FB730B46BB73FB7B002B1ED1BB7B164A90
S214401900B9681846154B98470246134B5A60B97B40
S21440191007F1160301934FF480730093104B0E4A61
S2144019201048114CA0470346002B0CD1FB8A1A46A0
S2144019300B490E480E4B984704E00E4902200E4BCA
S214401940984700BF05E000BF0C4902200A4B984765
S21440195000BF1C37BD4690BD000F002061214000EF
S214401960840F002088180020F1F04000201B002043
S214401970EDF6400068B9410019FD4000A0B94100AD
S21440198090B587B000AF0346B9607A60FB7341F20A
S21440199088337B61FB7B072B41D801A252F823F0AA
S2144019A0C1194000151A4000CF194000151A4000D2
S2144019B0151A4000FD194000151A4000151A40003F
S2144019C0BB681A4618490120184B984727E03B7ACF
S2144019D019461748174B984738613B69002B1BDA66
S2144019E03B7A1A463B6914490520104CA04713E041
S2144019F00A20124B98477B690A3B7B613B7A184624
S214401A000F4B98470346B3F1FF3F07D17B69002B46
S214401A10EEDC03E000BF02E000BF00E000BF00BF16
S214401A201C37BD4690BD00BFE0B9410019FD4000DF
S214401A3088180020A5EF400020BA410069144000F5
S214401A402115400080B582B000AF094B9847034649
S214401A50FB71084B98470346BB71BA79FB799342B2
S214401A6028BF1346DBB218460837BD4680BD00BFC8
S214401A706D9940008599400090B5A1B000AFF860E0
S214401A80C7E900230B46FB72FB7A944AD35C87F87F
S214401A907F3007F11003502200211846904B98479C
S214401AA097F87F303B61D7E90034C7E9063497F8AA
S214401AB07F30013B202B00F20C8101A252F823F02C
S214401AC0F31B4000111C40009D1C4000B51B40000D
S214401AD0D31C4000D31C4000D31C4000D31C400005
S214401AE0D31B4000F31B40002F1C4000D31C40007B
S214401AF0D31C40007D1B40004B1C4000451B400053
S214401B00731C4000731C4000891C40002F1C400082
S214401B10D31C4000731C4000D31C4000D31C400024
S214401B20731C4000691C4000D31C4000791C4000D8
S214401B30D31C4000D31C4000D31C4000B11C4000C6
S214401B40B11C400007F164031822D7F890101846DD
S214401B50644B984707F1200307F1640207CA83E8FD
S214401B60070007F12C0307F1700207CA83E8070055
S214401B70D7F894301B7887F83830A3E007F1640331
S214401B801822D7F890101846564B984707F120036E
S214401B9007F1640207CA83E8070007F12C0307F140
S214401BA0700207CA83E80700D7F894301B7887F896
S214401BB0383087E007F1100310330C22D7F8901026
S214401BC01846484B9847D7F894301B7887F83830F3
S214401BD078E007F1100310330C22D7F8901018461F
S214401BE0404B9847404B98470346DBB287F838301F
S214401BF068E007F1100310330C22D7F8901018460F
S214401C00384B9847D7F894301B7887F8383059E0E7
S214401C1007F1100310330C22D7F890101846314BBA
S214401C209847D7F894301B7887F838304AE0D7F88A
S214401C3094301B683B6307F1100310331022D7F82B
S214401C4090101846274B98473CE007F11003103396
S214401C501022D7F890101846224B9847234B9847A7
S214401C60034687F834302DE0D7F890301B683B6247
S214401C7028E001233B6225E001233B62D7F8903001
S214401C801B7887F820301DE007F110031033082238
S214401C90D7F890101846134B984713E007F11003F7
S214401CA010330C22D7F8901018460E4B984709E090
S214401CB007F1100310330C22D7F890101846094B42
S214401CC0984700BF07F1100300211846084B984775
S214401CD000E000BF8437BD4690BD00BF0401002031
S214401CE041424100454041006D994000451A400040
S214401CF0F51C400090B587B002AF786039607B68CD
S214401D001B681A46134B1A60124B00225A6012493F
S214401D107868124B984707F10E0301934FF480738F
S214401D2000930F4B0B4A30210E480F4CA0470346FA
S214401D30002B06D1FB891A4609490C480C4B98479C
S214401D4005E000BF0B4902200B4B984700BF1437F5
S214401D50BD4690BD841000208C1000207D1D4000A4
S214401D6008110020881800206DF44000201B002039
S214401D70EDF6400050BA410019FD400090B583B0E2
S214401D8000AF786039607B68D3E902341A463B6816
S214401D901A607B681B68412B00F25D8101A252F8F5
S214401DA023F000BF57204000AD1E40003F1F4000BC
S214401DB0C31F4000CD1E4000572040005720400023
S214401DC05720400057204000AD1E4000AD1E40004A
S214401DD0911F400057204000572040005F1F4000A2
S214401DE01F1F4000ED1E40004B2040004B2040008F
S214401DF025204000911F4000572040004B204000C7
S214401E0057204000572040004B20400033204000E1
S214401E10572040004B2040005720400057204000AD
S214401E205720400005204000052040005720400035
S214401E305720400057204000572040005720400081
S214401E405720400057204000572040005720400071
S214401E505720400057204000572040005720400061
S214401E605720400057204000572040005720400051
S214401E705720400057204000572040005720400041
S214401E8057204000572040003F2040005720400049
S214401E905720400057204000572040005720400021
S214401EA0572040001F1F40001F1F40007B6803F163
S214401EB010003B68083310220321694CA0477B681A
S214401EC093F828301A463B685A60C5E07B6803F1B1
S214401ED010003B68083310220321614CA0477B6802
S214401EE093F828301A463B685A60B5E07B6803F1A1
S214401EF010003B68083310220321594CA0477B68EA
S214401F0003F11C003B68143310220321544CA047B5
S214401F107B6893F828301A463B685A609CE07B689A
S214401F2003F110003B6808331E2204214C4CA047A6
S214401F307B6893F824301A463B685A608CE07B688E
S214401F4003F110003B68083310220321444CA0479D
S214401F507B6893F828301A463B685A607CE07B687A
S214401F6003F110003B680833102203213C4CA04785
S214401F707B6803F11C003B68143310220321384C65
S214401F80A0477B6893F828301A463B685A6063E05F
S214401F907B6803F110003B6808331E220421304C56
S214401FA0A0477B6803F120003B68183310220121CC
S214401FB02B4CA0477B6893F824301A463B685A60FF
S214401FC04AE07B6803F110003B6808331022012189
S214401FD0234CA0477B6803F114003B680C33102267
S214401FE001211F4CA0477B6803F118003B68103363
S214401FF0102201211A4CA0477B681B7F1A463B687B
S2144020005A6029E07B681B691A463B689A607B6881
S2144020105B691A463B68DA607B689B691A463B6890
S2144020201A6119E07B68D3E904341A463B689A6023
S21440203012E07B681B69DAB23B681A720CE07B6878
S2144020401B69DAB23B681A7206E07B681B69DAB233
S2144020503B681A7200E000BF00BF0C37BD4690BD1B
S21440206093F8400080B483B000AF78607B68013B53
S214402070202B6DD801A252F823F000BF0921400062
S21440208031214000492140000D21400051214000AF
S2144020905121400051214000512140004121400043
S2144020A04521400029214000512140005121400057
S2144020B011214000252140001521400035214000D7
S2144020C01D214000212140002D214000512140008B
S2144020D03D2140005121400051214000392140001F
S2144020E019214000512140004D214000512140001F
S2144020F0512140005121400001214000052140006F
S214402100022326E0032324E0002322E0012320E0EC
S21440211004231EE005231CE006231AE0072318E0EC
S214402120082316E0092314E00A2312E00B2310E0EC
S2144021300C230EE00D230CE00E230AE00F2308E0EC
S214402140102306E0112304E0122302E0132300E0EC
S214402150142318460C37BD465DF8047B704700BF15
S21440216080B58AB000AF0346B9607A60FB7300233F
S2144021707B62BB681B687B61FB7B103B132B00F2CA
S214402180ED8101A252F823F0432240005F22400036
S214402190ED214000112540005D25400055234000BC
S2144021A05D254000C32240005D254000932340004B
S2144021B069244000C72440005D2540005D2540005E
S2144021C05D2540005D2540005D2540005D254000C2
S2144021D0D9214000F9244000BB681B79042B03D169
S2144021E08C4B98470346BBE10023B9E144233B624E
S2144021F089490520894B984709E0386A884B9847B3
S2144022000346002219468748874B984778623B6AC0
S2144022105A1E3A62002BF0DC08218448844B9847CB
S214402220844B984702467B6A13447B62824B9847AE
S21440223002467B6A13447B62804B00221A607B6AAC
S2144022408EE107F11303194676487D4B984778622E
S2144022507B6A002B01D1FB7C82E17B6A80E14423D0
S214402260FB61784905206D4B984709E0F8696C4B4F
S21440227098470346002219466A486B4B984778624F
S214402280FB695A1EFA61002BF0DC08216748684B50
S214402290984764486C4B984702467B6A13447B6277
S2144022A0644B984702467B6A13447B62624B98476E
S2144022B002467B6A13447B62604B00221A607B6A4C
S2144022C04EE17869614B984703461A4660490520B7
S2144022D0524B98477B69202B29D07B69212B26D0EF
S2144022E07B69012B23D07B69042B20D07B69102B84
S2144022F01DD07B690F2B1AD07B69092B17D07B69C1
S2144023000A2B14D07B69132B11D07B691A2B0ED065
S2144023107B691C2B0BD07B69112B08D07B69122B59
S21440232005D07B69162B02D07B69192B01D100237F
S21440233016E17B69022B08D07B690E2B05D07B69A2
S2144023400B2B02D07B69142B01D1002308E16FF0E0
S2144023500A0305E178693D4B984703461A463D49CE
S21440236005202E4B98477B69202B0BD07B69012B91
S21440237008D07B69212B05D07B69042B02D07B6972
S214402380022B03D1344B98470346E9E06FF00A032B
S214402390E6E078692D4B984703461A462F490520B4
S2144023A01E4B98477B69002B30DD78691C4B98475D
S2144023B00346132B2AD81B4B93F89030002B0CD097
S2144023C0184B93F89130002B07D125491548254BDB
S2144023D09847144B012283F891207869104B984710
S2144023E00346012219460F480F4B98477862786992
S2144023F00B4B984703461A46012393401A460F4B09
S2144024001B6813430D4A13607B6AA9E06FF0010313
S214402410A6E000BF1115400080BA410019FD4000FB
S21440242065204000301B002069AB400000100E4085
S214402430E101400069174000A1164000FC0E002054
S21440244055A74000ACBA410039AB400051CC4000E3
S214402450D8BA410004BB41007D27400038BB41004C
S214402460E40E002099A3400078693F4B9847034606
S2144024701A463E4905203E4B98477B69002B1FDD98
S21440248078693C4B98470346132B19D87869394BE3
S21440249098470346002219463748384B9847786293
S2144024A07869344B984703461A4601239340DB43EA
S2144024B01A46334B1B681340314A13607B6A4FE021
S2144024C06FF001034CE0BB685B681A462D49052057
S2144024D0274B98477869274B984703461946BB6869
S2144024E05B68294AA2FB03239B091A462248274BCE
S2144024F0984778627B6A33E078691B4B9847034677
S2144025001A46234905201A4B98476FF0010327E0E7
S2144025104423BB611F490520154B984709E0B8691D
S214402520144B98470346002219461348134B9847C6
S2144025307862BB695A1EBA61002BF0DC0821164847
S214402540164B98470C48164B984702467B6A1344EE
S2144025507B620B4B00221A607B6A01E06FF001033E
S21440256018462837BD4680BD51CC400068BB410068
S21440257019FD400065204000301B002069AB40003C
S214402580FC0E002094BB4100D34D6210CDAB400002
S214402590CCBB410008BC410000100E40E1014000A9
S2144025A039AB400080B48DB000AFF860B9607A6057
S2144025B03B6000233B6200237B6214E07B6A9B0007
S2144025C0BA6813441B68002B01D001233B627B6A28
S2144025D09B007A6813441B68002B01D001233B62A2
S2144025E07B6A01337B627B6A022BE7DD3B6A002B0A
S2144025F00FD100237B6208E07B6A9B003A68134455
S21440260000221A607B6A01337B627B6A0B2BF3DD08
S214402610AEE04FF4FA73FB610023BB6100237B629C
S2144026201DE07A6ABB6913449B003A6813447A6A91
S2144026309200B9680A441268F96901FB02F21A600E
S2144026407A6ABB6913449B00BA6B13447A6A920059
S214402650B9680A4412681A607B6A01337B627B6AF7
S214402660022BDEDD0023FB620123BB627B68043362
S2144026701B6883EAE372A2EBE3727B681B68002B5D
S214402680B8BF5B429A4201DD0123FB627B68083398
S2144026901B6883EAE372A2EBE372FB6A9B007968ED
S2144026A00B441B68002BB8BF5B429A4201DD0223F5
S2144026B0FB62FB6A9B007A6813441B68002B02DAB5
S2144026C04FF0FF33BB620423FB61BB6A9B037B6115
S2144026D07B69FA6902FB03F33B61BB690333BB6169
S2144026E000237B6241E07A6ABB6913449B003A68E8
S2144026F013447A6A920079680A441268F96901FBC1
S21440270002F21A607A6ABB6913449B00BA6B1344A0
S2144027107A6A920079680A4412681A60FA6A7B6A92
S2144027209A421FD17A6ABB6913449B003A681344A5
S214402730796ABA690A44920039680A4411683A6963
S2144027408A1A1A607A6ABB6913449B00BA6B1344B0
S214402750796ABA690A449200B96B0A4411687A6980
S2144027608A1A1A607B6A01337B627B6A022BBADD67
S2144027703437BD465DF8047B704700002DE9B04312
S2144027808AB004AF5B4B93F89030012B04D15A4982
S21440279003205A4B9847A6E059490320574B984781
S2144027A03A4607F10C0319465248564B984702469C
S2144027B0554B1A60544B1B6803F00703072B0BD18D
S2144027C04C4B012283F890204A4B002283F89120FC
S2144027D04D4B00221A6007E04C490120474B984772
S2144027E0494B4FF0FF321A60494B98473A4607F13B
S2144027F00C01484B0093484B3E48484CA047464B3C
S2144028001B6807EE903AF8EEE77A9FED457AC7EEFA
S214402810876A444B16EE900A9847804689463E4B58
S2144028205B6807EE903AF8EEE77A9FED3D7AC7EEA2
S214402830876A3C4B16EE900A984704460D46364B40
S2144028409B6807EE903AF8EEE77A9FED357AC7EE4A
S214402850876A344B16EE900A984702460B46CDE9F7
S2144028600223CDE9004542464B462F490320234CE0
S214402870A047294BDB6807EE903AF8EEE77A9FEDE3
S214402880287AC7EE876A274B16EE900A9847804606
S2144028908946214B1B6907EE903AF8EEE77A9FEDA2
S2144028A0207AC7EE876A1F4B16EE900A9847044672
S2144028B00D46194B5B6907EE903AF8EEE77A9FEDC6
S2144028C0187AC7EE876A174B16EE900A9847024664
S2144028D00B46CDE90223CDE9004542464B46134917
S2144028E00320064CA047084B1B6818461837BD46C1
S2144028F0BDE8B083301B002034BC410019FD4000C9
S2144029005CBC410061A240000812002074BC41003B
S21440291069174000E40E00200C120020A525400058
S214402920000080470D37410088BC4100B8BC4100DC
S21440293080B483B000AF0346FB71094997F907306E
S2144029405B09FA7902F01F02012000FA02F241F810
S214402950232000BF0C37BD465DF8047B704700BFA0
S21440296000E100E080B483B000AF0346FB71094944
S21440297097F907305B09FA7902F01F02012000FA46
S21440298002F2203341F8232000BF0C37BD465DF8E5
S214402990047B704700E100E080B483B000AF03469C
S2144029A0FB71094997F907305B09FA7902F01F0273
S2144029B0012000FA02F2603341F8232000BF0C37B2
S2144029C0BD465DF8047B704700E100E080B483B00C
S2144029D000AF03463960FB7197F90730002B0BDADE
S2144029E00D49FB7903F00F03043B3A68D2B212015B
S2144029F0D2B20B441A7609E0084997F907303A688C
S214402A00D2B21201D2B20B4483F8002300BF0C3777
S214402A10BD465DF8047B704700ED00E000E100E055
S214402A2080B483B000AF78607B68072B25D801A2BE
S214402A3052F823F0552A40005B2A4000612A4000A5
S214402A40672A40006B2A40006F2A4000732A4000E5
S214402A50772A40004FF4FA4310E04FF400430DE06D
S214402A604FF400430AE0084B08E0084B06E0084BEA
S214402A7004E0002302E0002300E0002318460C3761
S214402A80BD465DF8047B704700127A000024F400CF
S214402A9000366E0180B500AF0120044B98470246D1
S214402AA040F64E6303FB02F3184680BD212A4000E1
S214402AB080B500AF024B98470346184680BD00BF1E
S214402AC0952A400080B500AF024B9847034618460B
S214402AD080BD00BF952A400080B582B000AF7860C8
S214402AE07868034B984700BF0837BD4680BD00BF97
S214402AF00144400080B588B000AF786039603B68DC
S214402B001B68BB603B685B68FB603B689B683B61DF
S214402B103B68DB687B610023BB617B68694A934204
S214402B2015D16948694B984701216748684B9847D3
S214402B30684B9847024607F1080319467868664B83
S214402B4098477868654B98477868654B98477B68A0
S214402B50644A934215D164485C4B984701216248C9
S214402B605B4B98475B4B9847024607F1080319466C
S214402B707868594B98477868584B98477868584BC8
S214402B8098477B68594A934215D159484F4B9847C6
S214402B90012157484E4B98474E4B9847024607F1FF
S214402BA00803194678684C4B984778684B4B9847CB
S214402BB078684B4B98477B684E4A934215D14E48AF
S214402BC0424B984701214C48414B9847414B9847C8
S214402BD0024607F10803194678683F4B98477868DD
S214402BE03E4B984778683E4B98477B68434A9342AB
S214402BF015D14348354B984701214148344B9847B7
S214402C00344B9847024607F1080319467868324B1A
S214402C1098477868314B98477868314B98477B6837
S214402C20384A934215D13848284B984701213648B0
S214402C30274B9847274B9847024607F10803194603
S214402C407868254B98477868244B98477868244B93
S214402C5098477B682D4A934215D12D481B4B984781
S214402C6001212B481A4B98471A4B9847024607F1C2
S214402C70080319467868184B98477868174B984762
S214402C807868174B98477B68224A934215D122486A
S214402C900E4B9847012120480D4B98470D4B9847BF
S214402CA0024607F10803194678680B4B9847786840
S214402CB00A4B984778680A4B984700BF2037BD466E
S214402CC080BD00BF00C2004000C000404937400001
S214402CD0B1384000C52A40008134400005354000E8
S214402CE039354000000202400000024000420240E7
S214402CF000400240008201400080014000C2014086
S214402D0000C00140008200400080004000020440B5
S214402D1000000440004203400040034080B584B0B9
S214402D2000AF786039600023FB607B68494A934275
S214402D300DD100BF07F10C0319467868464B9847FB
S214402D400346002BF6D1FB68DAB23B681A707B6804
S214402D50424A93420DD100BF07F10C0319467868EA
S214402D603D4B98470346002BF6D1FB68DAB23B68EA
S214402D701A707B683A4A93420DD100BF07F10C03A4
S214402D8019467868344B98470346002BF6D1FB68C3
S214402D90DAB23B681A707B68324A93420DD100BF64
S214402DA007F10C03194678682B4B98470346002BCF
S214402DB0F6D1FB68DAB23B681A707B682A4A9342BF
S214402DC00DD100BF07F10C0319467868224B98478F
S214402DD00346002BF6D1FB68DAB23B681A707B6874
S214402DE0224A93420DD100BF07F10C03194678687A
S214402DF0194B98470346002BF6D1FB68DAB23B687E
S214402E001A707B681A4A93420DD100BF07F10C0333
S214402E1019467868104B98470346002BF6D1FB6856
S214402E20DAB23B681A707B68124A93420DD100BFF3
S214402E3007F10C0319467868074B98470346002B62
S214402E40F6D1FB68DAB23B681A7000BF1037BD4651
S214402E5080BD00BF00C200400B364000000202406A
S214402E60004202400082014000C201400082004011
S214402E70000204400042034080B483B000AF786054
S214402E807B681B685A1C7B681A6000BF0C37BD46BF
S214402E905DF8047B704780B483B000AF78607B6891
S214402EA01A897B68DB889A4207D17B68DA7A7B6826
S214402EB09B7A9A4201D0012300E0002318460C3743
S214402EC0BD465DF8047B704780B400AF034B0122DB
S214402ED01A6000BFBD465DF8047B7047980D002021
S214402EE090B585B002AF78600C200F4B98477023A2
S214402EF008224FF020510D480D4CA0477B680093A8
S214402F00702308220C2109480A4CA04700220C21B5
S214402F100648094B984708210448084B984700BF85
S214402F200C37BD4690BD00BF0144400000100E4027
S214402F3091034000CD06400065074000BD044000B8
S214402F4090B589B000AF184B07F110040FCB84E85A
S214402F500F000720154B984707F1100319461448F1
S214402F60144B9847144B3C460FCB84E80F00082080
S214402F700E4B98473B46194610480E4B98474FF421
S214402F8000720F490F48104B984701210B480F4BD2
S214402F909847002108200E4B984708200D4B98472D
S214402FA000BF2437BD4690BDE0BC4100D92A400052
S214402FB000420340F52A4000F0BC410000C20040F9
S214402FC0241200206820002065FD40006D3540003A
S214402FD0CD2940003129400080B582B000AF0E4870
S214402FE00E4B984778607B6803F00103002B0FD0A8
S214402FF0FB1C194608480A4B98470A480A4B98470C
S2144030000346002B04D1FB7819460648074B9847E1
S21440301000BF0837BD4680BD00C20040893540002D
S2144030201D2D400068200020972E4000BDFD40002A
S21440303080B500AF0A480B4B9847032108480A4B17
S21440304098470A4B98470246094B1A60084B094A6C
S2144030505A6007490848094B984700BF80BD00BFE3
S21440306000C0014049374000B1384000C52A400002
S2144030703C200020801A060000C60140ED094000B2
S21440308080B588B000AF3B600346FB710B46BB7112
S2144030901346BB80FB79002B02D10E4B1B78FB718D
S2144030A0FB793B77BB793B7301233B613B687B6194
S2144030B0BB88BB6107F10C0319460748074B984786
S2144030C00346002B01D1002300E008231846203792
S2144030D0BD4680BD1801002000C601401D0B4000C3
S2144030E080B588B000AF3B600346FB710B46BB71B2
S2144030F01346BB80FB79002B02D10C4B1B78FB712F
S214403100FB793B77BB793B7301233B613B687B6133
S214403110BB88BB6107F10C0319460548054B984729
S214403120034618462037BD4680BD00BF1801002024
S21440313000C60140290C400080B400AF002318466A
S214403140BD465DF8047B704780B500AF014B98479D
S21440315000BF80BD3130400080B400AF034B6822D2
S2144031601A7000BFBD465DF8047B7047180100200A
S21440317090B589B002AF7860204B984778611720A9
S2144031801F4B984717201F4B984707F1080107F138
S2144031900C027B6900930B46796978681A4CA04705
S2144031A0BB6843F480431A4600211848184B98479A
S2144031B0FB687A69B2FBF3F27B68B2FBF3F33B61E0
S2144031C03A6900211148134B984700210F48124B8B
S2144031D09847102200210D48104B984700210B4875
S2144031E00F4B9847002117200E4B984717200E4B41
S2144031F0984700BF1C37BD4690BD00BFB12A40006F
S21440320065294000992940001F0940000000014000
S214403210E907400089084000FB084000AF0840002E
S21440322023084000CD29400031294000F0B585B044
S21440323000AF00211F48204B9847F86000211D48EA
S2144032401E4B9847B8601E4B1B684FF000044CF26C
S214403250503202FB04F1002202FB03F20A444CF215
S2144032605031A3FB015693191E46FB684FF00004ED
S2144032704CF2503202FB04F1002202FB03F20A44F5
S2144032804CF25031A3FB010153181946BB684FF06E
S21440329000040C4A7A601A4623467C68A0470346D8
S2144032A00C465B1944EB0604184621461437BD46C7
S2144032B0F0BD00BF000001404508400067084000E0
S2144032C024140020793C410080B582B000AF002134
S2144032D00C480D4B9847786000210A480B4B98479E
S2144032E002467B6813407B607B6803F01003002B2C
S2144032F004D0074B1B680133054A136000BF0837EC
S214403300BD4680BD00000140FB084000D708400095
S2144033102414002080B500AF044B1B680133034AD9
S21440332013600348034B984700BF80BD2814002015
S21440333048200020792E400090B585B000AFF86058
S2144033407A603B600B46FB72064B18783B689AB235
S214403350F97A7B68044CA047034618461437BD46A6
S21440336090BD00BF180100208130400090B585B068
S21440337000AFF8607A603B600B46FB72064B1878ED
S2144033803B689AB2F97A7B68044CA04703461846D5
S2144033901437BD4690BD00BF18010020E130400004
S2144033A080B489B000AFF860B9607A60BB681A0133
S2144033B07B689A4202D81023FB6101E00823FB6138
S2144033C07B68DA00FB69B96801FB03F35B081A44C3
S2144033D0FB69B96801FB03F3B2FBF3F3BB61BB695E
S2144033E0DB087B61BB6903F007033B617B69002B0D
S2144033F003D07B69B3F5803F01D301230FE0FB691F
S214403400082B05D1FB685B6843F40022FB685A60D2
S2144034103B691A047B691A43FB681A620023184604
S2144034202437BD465DF8047B7047000080B582B007
S21440343000AF786078680D4B98477B6800225A60EA
S2144034407B6800225A627B6800229A627868084B42
S21440345098477868074B98477868074B9847786846
S214403460064B984700BF0837BD4680BD41364000F2
S2144034701F35400053354000A1354000BD35400063
S21440348080B584B000AFF860B9607A60F8681A4BCF
S21440349098471A4B00221A60BB68002B09D0BB68BD
S2144034A01B687A681946F868154B98470346002B00
S2144034B001D001231BE0BB685A68BB689B681A436F
S2144034C0BB681B691A43BB68DB681A430B4B1B6817
S2144034D013430A4A1360094B1B68084A1360FB688B
S2144034E05A68064B1B681A43FB685A600023184606
S2144034F01037BD4680BD00BF2D3440002C14002040
S214403500A133400080B483B000AF78607B6840222F
S2144035101A6000BF0C37BD465DF8047B704780B428
S21440352083B000AF78607B6888221A6000BF0C3793
S214403530BD465DF8047B704780B483B000AF7860CA
S2144035407B6810221A6000BF0C37BD465DF8047BCE
S214403550704780B483B000AF78607B6824221A60DE
S21440356000BF0C37BD465DF8047B704780B483B01F
S21440357000AF786039607B683A689A6000BF0C3765
S214403580BD465DF8047B704780B483B000AF78607A
S2144035907B685B6918460C37BD465DF8047B704710
S2144035A080B483B000AF78607B684FF480721A6056
S2144035B000BF0C37BD465DF8047B704780B483B0CF
S2144035C000AF78607B684FF400221A6000BF0C376B
S2144035D0BD465DF8047B704780B483B000AF78602A
S2144035E039607B685B6903F00203002B01D101233D
S2144035F005E03B68C3F308027B68DA61002318469F
S2144036000C37BD465DF8047B704780B483B000AF8E
S214403610786039607B685B6903F00103002B01D159
S214403620012306E07B689B69C3F308023B681A6087
S214403630002318460C37BD465DF8047B70470000F3
S21440364080B483B000AF78607B68044AC3F8E42057
S21440365000BF0C37BD465DF8047B704700415355AC
S21440366080B483B000AFEFF310837B607B68002BA1
S2144036700CBF01230023DBB23B6072B6BFF35F8F03
S214403680044B00221A703B6818460C37BD465DF85E
S214403690047B70471901002080B483B000AF786087
S2144036A07B68002B14BF01230023DBB218460C377F
S2144036B0BD465DF8047B704780B582B000AF786049
S2144036C07868074B98470346002B05D0054B0122E8
S2144036D01A70BFF35F8F62B600BF0837BD4680BD25
S2144036E0993640001901002080B582B000AF78605E
S2144036F07868034B984700BF0837BD4680BD00BF7B
S2144037000144400080B584B000AF0346FB71FB79AE
S2144037100A4AD35CFF2B00D1FEE7094B9847F86076
S214403720FB79064AD25C0132D1B2044AD154F868D9
S214403730044B984700BF1037BD4680BD7C1800201C
S21440374061364000B936400080B582B000AF786040
S21440375000204A4B98477B68494A93420DD1072040
S214403760484B98470720484B984700210720474B2F
S21440377098470720464B98477CE07B68454A9342EB
S2144037800DD116203F4B984707203F4B98470021C6
S21440379007203E4B984707203D4B98476AE07B689A
S2144037A03D4A93420DD11520364B98470720364B5D
S2144037B0984700210720354B98470720344B9847B9
S2144037C058E07B68354A93420DD114202D4B9847DC
S2144037D007202D4B9847002107202C4B9847072061
S2144037E02B4B984746E07B682D4A93420DD11320D9
S2144037F0244B98470620244B984700210620234B0D
S21440380098470620224B984734E07B68254A9342E7
S2144038100DD10E201B4B984706201B4B9847002186
S21440382006201A4B98470620194B984722E07B689B
S2144038301D4A93420DD10920124B98470620124B41
S214403840984700210620114B98470620104B984772
S21440385010E07B68154A93420CD10820094B9847E4
S2144038600620094B984700210620084B984706201B
S214403870074B984700BF0837BD4680BD0537400018
S21440388000400340E936400005454000854440007E
S214403890DD444000000004400080004000C001407D
S2144038A000800140004002400000024000C000404E
S2144038B080B483B000AF78600B46FB70FA787B68C4
S2144038C01A6000BF0C37BD465DF8047B70470000A9
S2144038D080B582B000AF78607B68072B31D801A2F4
S2144038E052F823F041394000053940000D39400078
S2144038F0153940001D394000253940002D3940001B
S214403900373940000020114B98471AE001200F4BF2
S214403910984716E000200E4B984712E010200C4BBC
S21440392098470EE020200A4B98470AE03E210020A8
S214403930084B984705E03E210120064B984700E09B
S21440394000BF00BF0837BD4680BD00BF29424000CB
S214403950954240000543400080B582B000AF786095
S2144039607B68072B26D801A252F823F08D394000F9
S2144039709139400091394000A3394000A3394000B6
S214403980A3394000A3394000A3394000012312E088
S2144039900B4B98470346002B14BF01230023DBB292
S2144039A009E0084B98470346002B14BF0123002329
S2144039B0DBB200E0002318460837BD4680BD00BF96
S2144039C0614240007D43400080B483B000AF7860E1
S2144039D07B68072B25D801A252F823F0FD3940001A
S2144039E0033A4000093A40000F3A4000133A40007C
S2144039F0173A40001B3A40001F3A40004FF4FA4343
S214403A0010E04FF400430DE04FF400430AE0084B4B
S214403A1008E0084B06E0084B04E0002302E00023E1
S214403A2000E0002318460C37BD465DF8047B70471F
S214403A3000127A000024F40000366E0180B582B091
S214403A4000AF0346FB7100BFFB791846054B98470D
S214403A50034683F00103DBB2002BF5D100BF0837E5
S214403A60BD4680BD5939400080B586B000AFF8608D
S214403A707A603B600B46FB72FB7A18460D4B9847C4
S214403A8002467B68B2FBF3F37B617B693A6802FBD4
S214403A9003F37B613B68013B1A04074B13407A688B
S214403AA0D2B2134343F47C52FB681A6000BF183707
S214403AB0BD4680BDC93940000000FF1F80B582B0BA
S214403AC000AF786039603B68002B06D1084B9847BA
S214403AD0084A7B681B68936205E0074B9847054A8F
S214403AE07B681B68D36200BF0837BD4680BD00BFF9
S214403AF09943400000040E40CD43400080B582B05C
S214403B0000AF78607B68002B03D1084B984703468C
S214403B1007E07B68012B03D1054B9847034600E03E
S214403B20002318460837BD4680BD00BFB14340005D
S214403B30E543400080B582B000AF0346FB71FB7999
S214403B400033012B08D8FB791846064B9847FB797B
S214403B501846054B984700E000BF00BF0837BD46F3
S214403B6080BD00BFD13840003D3A400080B582B0AD
S214403B7000AF786000BF7868044B98470346002B38
S214403B80F9D0002318460837BD4680BDFD3A4000B0
S214403B9080B500AF0120044B9847024640F64E637E
S214403BA003FB02F3184680BDC939400080B500AF1C
S214403BB0024B98470346184680BD00BF913B4000E5
S214403BC090B5A5B002AF2048204B98470120204B27
S214403BD09847384640F64E63012201211D4CA047C7
S214403BE03B46002118461C4B984700201B4B9847E5
S214403BF000201B4B98471B4B98471B4B9847034648
S214403C001846124B9847194B1B68194A934216D8C8
S214403C10164B1B68174A934211D93A1D202300932E
S214403C2013460F220E211448144CA0477B6C9BB2BF
S214403C30C7F88430D7F884101148124B984700BF15
S214403C408C37BD4690BD00BF000E2707E9474000B1
S214403C50353B4000693A4000BD3A40006D3B40006D
S214403C60A5414000C5464000AD3B40001C01002039
S214403C70C0EF0B083F2C4206000A0E400B00002007
S214403C8010140E402D45400080B582B000AF7860DD
S214403C907868034B984700BF0837BD4680BD00BFD5
S214403CA00144400080B500AF0B20034B98470C20E2
S214403CB0014B984700BF80BD893C400080B489B026
S214403CC000AF78607B68FB61FB69BB61BB695A09E2
S214403CD0FB697B617B6903F01F03012101FA03F353
S214403CE03A61FB603B69BB60BB6803F5001303F2B7
S214403CF007735B021A46FB68536000BF2437BD4615
S214403D005DF8047B704780B487B000AF7860396058
S214403D107B687B613B683B617B69FB60FB6803F5C6
S214403D20001303F207735B021A463B69536000BFF9
S214403D301C37BD465DF8047B704780B48BB000AF3F
S214403D40F860B9607A60FB687B62BB683B627B6800
S214403D50FB617B6ABB61BB6903F5001303F2077323
S214403D605B027B61FB6903F00803002B03D07B6991
S214403D703A6A5A6602E07B693A6A1A66FB6903F059
S214403D801003002B04D07B693A6AC3F8942003E002
S214403D907B693A6AC3F89020FB6903F02003002B46
S214403DA003D07B693A6A1A6502E07B693A6A5A65CB
S214403DB0FB6903F0C003002B03D07B693A6A1A62A2
S214403DC002E07B693A6A5A62FB6903F08003002B83
S214403DD004D07B693A6AC3F8842003E07B693A6A78
S214403DE0C3F88020FB6903F00103002B06D07B69F3
S214403DF01A6F3B6A1A437B691A6706E07B691A6F3B
S214403E003B6ADB431A407B691A67FB6903F002038F
S214403E10002B06D07B695A6F3B6A1A437B695A6708
S214403E2006E07B695A6F3B6ADB431A407B695A67F8
S214403E3000BF2C37BD465DF8047B704780B48DB01C
S214403E4000AF786039607B68FB623B68BB62FB6AA8
S214403E507B627B6A5A09FB6A3B623B6A03F01F033C
S214403E60012101FA03F3FA61BB61BB6A7B61FB691E
S214403E703B613B6903F5001303F207735B02FB608B
S214403E807B6903F00803002B03D0FB68BA695A66C7
S214403E9002E0FB68BA691A667B6903F01003002BE0
S214403EA004D0FB68BA69C3F8942003E0FB68BA699B
S214403EB0C3F890207B6903F02003002B03D0FB68F7
S214403EC0BA691A6502E0FB68BA695A657B6903F00D
S214403ED0C003002B03D0FB68BA691A6202E0FB6895
S214403EE0BA695A627B6903F08003002B04D0FB68F2
S214403EF0BA69C3F8842003E0FB68BA69C3F8802037
S214403F007B6903F00103002B06D0FB681A6FBB6980
S214403F101A43FB681A6706E0FB681A6FBB69DB4307
S214403F201A40FB681A677B6903F00203002B06D031
S214403F30FB685A6FBB691A43FB685A6706E0FB6822
S214403F405A6FBB69DB431A40FB685A6700BF343779
S214403F50BD465DF8047B704780B48DB000AF786096
S214403F600B46FB707B68FB62FB7887F82B30FB6A5E
S214403F707B627B6A3B623B6A5B09FB61FB6903F5DC
S214403F80001303F207735B02BB6197F82B30012BDB
S214403F9009D1FB6A7B617B6903F01F0301229A40CB
S214403FA0BB691A610CE097F82B30002B08D1FB6AEE
S214403FB03B613B6903F01F0301229A40BB695A618B
S214403FC0FB6AFB60FB6803F01F0301229A40BB6953
S214403FD0C3F8A02000BF3437BD465DF8047B704769
S214403FE080B48BB000AF78600B46FB707B687B621A
S214403FF0FB7887F823307B6AFB61FB69BB61BB6952
S2144040005B097B617B6903F5001303F207735B0270
S2144040103B6197F82330002B09D07B6AFB60FB6836
S21440402003F01F0301229A403B691A6308E07B6A4B
S214404030BB60BB6803F01F0301229A403B695A638A
S21440404000BF2C37BD465DF8047B704780B500AF97
S2144040504C4B4FF400425A604B4B98470121062088
S2144040604A4B984701210620494B98470021022099
S214404070464B984708210220464B9847012101208D
S214404080434B984701210120404B984701212D2062
S2144040903F4B984701212D203C4B984701212F202C
S2144040A03B4B984701212F20384B984701224FF42D
S2144040B0C0610020384B98474FF4C0610020374B12
S2144040C0984701224FF0C0510020334B98474FF09D
S2144040D0C0510020314B984700210C202D4B98476B
S2144040E00C202F4B984700210D202A4B98470D2037
S2144040F02B4B984700210E20264B98470E20284BE6
S214404100984700210B20234B98470B20244B984779
S214404110012105201F4B98470520214B9847002139
S21440412028201C4B984728201D4B984700212920C3
S214404130184B984729201A4B984700210920154BC1
S21440414098470920164B984700210A20114B98475C
S2144041500A20134B9847002120200E4B98472020DA
S2144041600F4B9847002119200A4B984719200C4BB3
S214404170984700211A20074B98471A20084B984723
S21440418000BF80BD50140E40A53C4000593F400043
S214404190E13F40003D3E40003B3D4000073D400083
S2144041A0BD3C400080B485B000AF78601D491D4BD3
S2144041B01B6B23F070027B6813430B634FF4006362
S2144041C0FB6007E0FB68002B01D1012323E0FB687E
S2144041D0013BFB60134B9B6E03F00803002BF1D0B2
S2144041E0104A104B1B6B23F0030343F00203136388
S2144041F04FF40063FB6007E0FB68002B01D101230E
S21440420009E0FB68013BFB60064B9B6E03F008032E
S214404210002BF1D0002318461437BD465DF8047BCA
S214404220704700BF00040E4080B483B000AF786093
S2144042307B68012B07D1084A074B9B6843F0254310
S21440424043F480139360044B044A1A6000BF0C3753
S214404250BD465DF8047B704710140E40080000A56C
S21440426080B400AF094B5B6903F08003002B07D096
S214404270074B9B6E03F08003002B01D0012300E028
S21440428000231846BD465DF8047B704710140E4068
S21440429000040E4080B483B000AF7860184A184BD4
S2144042A01B6A43F45C1343F00803136200BF144BCD
S2144042B09B6E03F40033002BF9D01149104B1B6A58
S2144042C023F45C1323F070037A68134343F45C13BF
S2144042D00B6200BF0A4B9B6E03F40033002BF9D0F1
S2144042E0074A074B1B6A23F09B7323F4803343F43F
S2144042F05C13136200BF0C37BD465DF8047B704705
S21440430000040E4080B483B000AF786039607B68AC
S214404310002B08D01649164B1B6A164A1A40164BF5
S21440432013430B621EE01249114B1B6A23F45C13C5
S21440433023F003033A68120292B2134343F45C1329
S21440434043F001030B6200BF094B9B6E03F0010371
S214404350002BF9D0064A064B1B6A43F09B7343F486
S2144043608033136200BF0C37BD465DF8047B704750
S21440437000040E40FCFFC8FE0200370180B400AFC8
S214404380044B9B6E03F480331846BD465DF8047BB1
S214404390704700BF00040E4080B400AF034B0022BD
S2144043A09A6200BFBD465DF8047B704700040E402D
S2144043B080B400AF044B9B6E03F002031846BD4624
S2144043C05DF8047B704700BF00040E4080B400AF29
S2144043D0034B0022DA6200BFBD465DF8047B70479F
S2144043E000040E4080B400AF044B9B6E03F0040301
S2144043F01846BD465DF8047B704700BF00040E407B
S21440440080B483B000AF78607B68322B01D901233B
S2144044102FE07B681F2B13D8194B9A6901217B68C4
S21440442001FA03F31A4001217B6801FA03F39A422A
S2144044301ED0134A01217B6801FA03F3136117E08B
S2144044407B68203B7B600E4BD3F8082101217B68BC
S21440445001FA03F31A4001217B6801FA03F39A42FA
S21440446006D0074A01217B6801FA03F3C2F80031FF
S214404470002318460C37BD465DF8047B704700BFE6
S21440448000040E4080B485B000AF786039601249B1
S2144044903B6843F004027B68103341F823204FF416
S2144044A00063FB6007E0FB68002B01D101230DE0B1
S2144044B0FB68013BFB60084B9A6E4FF480717B684B
S2144044C001FA03F31340002BEDD0002318461437AF
S2144044D0BD465DF8047B704700040E4080B483B050
S2144044E000AF7860064A4FF480717B6801FA03F3A8
S2144044F0136000BF0C37BD465DF8047B704700BFB5
S21440450000040E4080B483B000AF7860064A4FF493
S21440451080717B6801FA03F3536000BF0C37BD46D9
S2144045205DF8047B704700BF00040E4080B485B041
S21440453000AF786039607B68DB6923F4F053FB603A
S2144045403B685B0203F4F052FB68134343F0B4430A
S21440455043F480737A68D36100BF1437BD465DF874
S214404560047B704780B483B000AFEFF310837B606A
S2144045707B68002B0CBF01230023DBB23B6072B686
S214404580BFF35F8F044B00221A703B6818460C3707
S214404590BD465DF8047B70471901002080B483B0A7
S2144045A000AF78607B68002B14BF01230023DBB28A
S2144045B018460C37BD465DF8047B704780B582B020
S2144045C000AF78607868074B98470346002B05D0C5
S2144045D0054B01221A70BFF35F8F62B600BF0837E3
S2144045E0BD4680BD9D4540001901002080B584B081
S2144045F000AF254BFB60254BBB60FA68BB689A4210
S2144046000CD007E0BB681A1DBA60FA68111DF96045
S21440461012681A60BB681E4A9342F3D31D4BBB60B8
S21440462004E0BB681A1DBA6000221A60BB681A4ACA
S2144046309342F6D3194BFB60194AFB6823F07F037D
S2144046409360184B98477860174A174B1B6843F49B
S21440465070031360BFF34F8FBFF36F8F7868134BB1
S2144046609847FB68B3F1005F09D3FB68104A934252
S21440467005D80B4A0A4B9B6843F0005393600D4B9A
S21440468098470D4B9847FEE7DCD8410000000020D5
S214404690080D0020080D00204421002000004000A6
S2144046A000ED00E06545400088ED00E0BD45400077
S2144046B0FF7F0220953F41007D11400080B400AF4F
S2144046C0FEE7000080B400AF414B1B6B03F00303D2
S2144046D0012B14D0012B02D3022B38D059E03D4B8E
S2144046E05B6903F08003002B04D03B4B4FF4004241
S2144046F01A604EE0384B4FF4FA421A6049E0344BA9
S2144047001B6A03F08073002B03D0334B334A1A6086
S2144047103FE0314B324A1A602D4B1B6A03F0700360
S214404720102B04D0202B08D0002B0ED00EE02A4BA6
S2144047301B685B00284A136008E0274B1A6813463C
S2144047405B001344244A136000E000BF21E0214B85
S2144047505B6903F08003002B04D01F4B4FF40042EC
S2144047601A6003E01C4B4FF4FA421A60184B1B6B5E
S21440477003F00303022B0BD1154B9B6A1B0CC3F3B0
S2144047800C030133144A126802FB03F3124A136007
S21440479000BF0F4B1B6B03F07003702B08D10E4B02
S2144047A01B68104AA2FB03235B080B4A13600AE00F
S2144047B0074B1B6B1B0903F00703074A126822FAD4
S2144047C003F3054A136000BFBD465DF8047B70479F
S2144047D000040E4010140E401C010020001BB700C1
S2144047E000127A00ABAAAAAA80B483B000AF786061
S2144047F07B68194A934204D8184B4FF080621A607F
S21440480023E07B68164A934203D8144B154A1A6035
S2144048101BE07B68144A934203D8104B134A1A6035
S21440482013E07B68124A934203D80C4B114A1A6035
S2144048300BE07B68104A934204D8084B4FF00422A2
S2144048401A6002E0054B0D4A1A6000BF0C37BD46A1
S2144048505DF8047B704700BFFF2C3101000A0E4014
S214404860FF59620200010004FF8693030002000421
S214404870FFB3C40400030004FFE0F5050005000490
S21440488080B485B000AF7860104BFB60104B1B685F
S214404890002B02D10E4B0F4A1A600D4B1B68BB60B3
S2144048A0BA687B681A44FB689A4202DD4FF0FF33D1
S2144048B006E0074B1A687B681344054A1360BB68DA
S2144048C018461437BD465DF8047B7047FC7F0220CF
S2144048D0301400204851002080B483B000AF786088
S2144048E00B46FB701346BB70FB78013B032B6FD81F
S2144048F001A252F823F000BF094940003B4940005E
S2144049009F4940006D4940007B682322C3F88820B9
S214404910BA787B68C3F884207B68012283F88C20B1
S2144049207B68FF2283F87D227B68FF2283F8812202
S2144049307B68012283F8852256E07B682422C3F8F0
S2144049408820BA787B68C3F884207B68012283F885
S2144049508C207B68012283F87D227B68012283F8C5
S21440496081227B68012283F885223DE07B682022F5
S214404970C3F88820BA787B68C3F884207B68012215
S21440498083F88C207B68012283F87D227B68012295
S21440499083F881227B68012283F8852224E07B68A5
S2144049A02522C3F88820BA787B68C3F884207B68C1
S2144049B0012283F88C207B68012283F87D227B6865
S2144049C0FF2283F881227B68FF2283F885220BE052
S2144049D07B680022C3F888207B680022C3F88420C6
S2144049E07B68002283F88C2000BF0C37BD465DF8FC
S2144049F0047B704790B587B002AF78607B685033D1
S214404A00242200211846344B98477B684D330322B6
S214404A1000211846304B98477B680022DA677B684F
S214404A20012283F880207B68002283F881207B68FF
S214404A30D3F88430DAB207F10803019301230093D8
S214404A40002300217868254CA047F860FB68002BBF
S214404A5001D0FB683CE03B7A482B02D04FF0FF3356
S214404A6036E07B681E4A5A677B681E4A9A677B68B0
S214404A70312283F882207B68802283F84D207B6831
S214404A80802283F84E207B68802283F84F207B6804
S214404A90D3F88430DAB27B6893F882301946002324
S214404AA000930B46012178680F4CA047F860FB68DE
S214404AB0002B01D0FB680BE07B68012283F8812045
S214404AC07B68022283F88C207868084B9847034618
S214404AD018461437BD4690BD4142410079544000C7
S214404AE008BD410000BD4100D15540002D4E40005C
S214404AF090B591B002AF78607B68D3F8843087F881
S214404B002B307B684D337B6207F11003012240F265
S214404B1085117868A64CA04778637B6B002B01D044
S214404B207B6B7CE1002240F285117868A14B984768
S214404B3078637B6B002B01D07B6B70E107F1100331
S214404B400133012240F289117868994CA047786376
S214404B507B6B002B01D07B6B61E1002240F2891118
S214404B607868944B984778637B6B002B01D07B6BBF
S214404B7055E107F10F0301224FF4C07178688C4C61
S214404B80A04778637B6B002B01D07B6B47E100220C
S214404B904FF4C0717868874B984778637B6B002BDF
S214404BA001D07B6B3BE1312387F8233097F8231005
S214404BB097F82B20002300930B46002178687E4C04
S214404BC0A04778637B6B002B40F0E9807B68D3F886
S214404BD08830232B12D07B68D3F88830242B0DD016
S214404BE097F82B20402300930C2300217868724CC2
S214404BF0A04778637B6B002B40F0D38097F8231058
S214404C0097F82B20102300930B46002178686A4CB7
S214404C10A04778637B6B002B40F0C5800A2387F85B
S214404C20333022E043F69820644B984797F82B2081
S214404C3007F11403019301230093102300217868A1
S214404C405F4CA04778637B6B002B40F0AE803B7D8B
S214404C5003F00103002B05D197F83330013B87F86A
S214404C60333002E0002387F8333097F83330002B98
S214404C70D8D13B7D03F00103002B03D14FF0FF3327
S214404C807B63A0E097F82B2007F1140301930623DB
S214404C900093112300217868494CA04778637B6BCA
S214404CA0002B40F08F807B7D1B021AB23B7D1BB2EF
S214404CB013433B84FB7D1B021AB2BB7D1BB21343DE
S214404CC0FB837B7E1B021AB23B7E1BB21343BB8325
S214404CD07B68D3F88830232B02D10723FB6201E0A0
S214404CE00823FB62B7F920307A6A1278803202FBDA
S214404CF003F2FB6A42FA03F33B84B7F91E307A6A42
S214404D0001321278803202FB03F2FB6A42FA03F366
S214404D10FB83B7F91C307A6A02321278803202FB83
S214404D2003F2FB6A42FA03F3BB834FF0FF337B6325
S214404D307B685B6FB3F90030B7F920209A4242DCBB
S214404D407B689B6FB3F90030B7F920209A423ADB74
S214404D507B685B6F0233B3F90030B7F91E209A4286
S214404D6031DC7B689B6F0233B3F90030B7F91E2005
S214404D709A4228DB7B685B6F0433B3F90030B7F99F
S214404D801C209A421FDC7B689B6F0433B3F90030CB
S214404D90B7F91C209A4216DB00237B6313E000BF62
S214404DA011E000BF0FE000BF0DE000BF0BE000BF0A
S214404DB055C7400089C64000D1554000F91540000F
S214404DC07954400000BF7B68D3F88830232B16D038
S214404DD07B68D3F88830242B11D07B68D3F8883092
S214404DE0252B0CD097F82B20002300930C23002172
S214404DF078680D4CA04702467B6B13437B6397F85D
S214404E00231097F82B20002300930B460021786848
S214404E10054CA04702467B6B13437B637B6B18466F
S214404E203C37BD4690BD00BFD155400080B584B0EC
S214404E3000AF78607B6893F88130002B01D1002367
S214404E401DE000217868104B9847F860012178688B
S214404E500D4B98470246FB681343FB60FB68002BEC
S214404E6001D0FB680BE07868084B98470246FB6821
S214404E701343FB607B68002283F88120FB6818465A
S214404E801037BD4680BD00BF55564000B95640005D
S214404E9090B589B002AF78607B6893F88130002B7C
S214404EA001D0002346E07B6893F88030002B04D086
S214404EB00323FB750A23BB7503E01023FB75092308
S214404EC0BB757B68D3F88430DAB2BB7D43F05003C1
S214404ED0DBB25BB2F97D00930B4600217868174C35
S214404EE0A04738613B69002B01D03B6922E0012393
S214404EF0FB737B68D3F88430DAB27B6893F8821011
S214404F0097F90F3000930B46012178680C4CA04768
S214404F1038613B69002B01D03B690BE07868094B50
S214404F20984702463B6913433B617B68012283F8FE
S214404F3081203B6918461C37BD4690BDD55340007E
S214404F40155540008556400090B5A3B000AFF860B8
S214404F50B9607A600023C7F884302BE00023C7F896
S214404F6080301EE0D7F8802013465B001A44D7F8FE
S214404F708430D118D7F8842013465B001A44D7F8FB
S214404F80803013441A46BB68134493F9002007F157
S214404F9088030B4403F8202CD7F880300133C7F839
S214404FA08030D7F88030022BDCDDD7F884300133F0
S214404FB0C7F88430D7F88430022BCFDDFB68D3F8AF
S214404FC08830252B04D1A34BBB6716237B6704E0B0
S214404FD0A04BBB6716237B6700BF0023C7F884300F
S214404FE02CE0FA68D7F8843013444D331B7803F12D
S214404FF08002D7F884309B0007F188010B4443F8C1
S214405000502CD7F884309B0007F18802134453F89D
S214405010502C7B6F02FA03F3B96F18468E4B9847B5
S2144050200246D7F884309B0007F188010B4443F8CA
S214405030502CD7F884300133C7F88430D7F8843002
S214405040022BCEDD0023C7F884302FE0D7F884301B
S2144050507A68134493F900301846D7F884107F4B8B
S21440506083FB0132CB17D21A13465B001344CA1A8D
S214405070930007F18802134453F8503C03FB00F2B8
S214405080D7F884309B0007F188010B4443F8742C12
S214405090D7F884309B0007F188021344002243F877
S2144050A0442CD7F884300133C7F88430D7F884309E
S2144050B0082BCBDD0023C7F8843060E00023C7F818
S2144050C0803053E0D7F8842013465B001A44D7F864
S2144050D080301344FA6812339B00134400229A60CF
S2144050E00023FB673AE0D7F8842013465B001A4457
S2144050F0FB6F1A44FB68A23253F82200FA6F13463D
S2144051005B001A44D7F8803013449B0007F18802AE
S214405110134453F8743C19464F4B98470146D7F80A
S214405120842013465B001A44D7F88030D018D7F84E
S214405130842013465B001A44D7F880301344FA683C
S21440514012339B0013449B685A18F96800F1120307
S2144051509B000B449A60FB6F0133FB67FB6F022B8F
S214405160C1DDD7F880300133C7F88030D7F88030BB
S214405170022BA7DDD7F884300133C7F88430D7F840
S2144051808430022B9ADD0023C7F8843052E0002397
S214405190C7F8803045E00023FB673AE0D7F8842024
S2144051A013465B001A44D7F88030D118D7F88420CD
S2144051B013465B001A44D7F8803013449B0007F12F
S2144051C08802134453F8440CD7F8842013465B00F7
S2144051D01A44FB6F134407F18802134413F9203C2A
S2144051E01C46FA6F13465B001A44D7F880301344C7
S2144051F0FA6812339B0013449B6803FB04F3C218FF
S2144052008B0007F188010B4443F8442CFB6F0133B5
S214405210FB67FB6F022BC1DDD7F880300133C7F840
S2144052208030D7F88030022BB5DDD7F88430013394
S214405230C7F88430D7F88430022BA8DD07F1440342
S2144052401946F868064B9847034618468C37BD46BD
S21440525090BD00BF99999909E96C4000565555553F
S214405260F1804000F0B589B000AFF860B9607A6070
S2144052700022FA6145E04FF000014FF00002C7E916
S21440528004120022BA612AE0F9690A465200114423
S214405290BA690A44F968123292000A44926815467E
S2144052A04FEAE576BA695200B9680A44B2F9002076
S2144052B0120411464FEAE17201FB06FE05FB02F0BE
S2144052C07044A5FB011210440246D7E9045649191A
S2144052D042EB0602C7E90412BA690132BA61BA69FA
S2144052E0022AD1DDFA69920079688818D7E9041253
S2144052F08B0F43EA820394171A460260FA6901321A
S214405300FA61FA69022AB6DD002318462437BD46FC
S214405310F0BD000080B582B000AF78607B6840F298
S21440532083129A857B684FF4C272DA857B6840F2B6
S21440533085121A867B684FF4C3725A867B6840F2A1
S21440534087129A867B684FF4C472DA867B6840F28E
S21440535089121A877B684FF4C5725A877B6840F279
S2144053608B129A877B684FF4C672DA877B6840F266
S2144053708D12A3F840207B684FF4C772A3F84220F2
S2144053807B6840F28F12A3F844207B684FF4C872C3
S214405390A3F846207B6840F29112A3F848207B6829
S2144053A04FF4C972A3F84A2000217868084B984702
S2144053B001217868064B984702217868044B984745
S2144053C003217868024B984700BF0837BD4680BD2A
S2144053D05556400090B587B000AFF860B9601146AA
S2144053E01A460B46FB711346BB7100237B61FB7963
S2144053F063F07F03DBB2FB74FA68BB680533DB00FF
S2144054001344998807F113030122F868194CA04702
S21440541002467B6913437B61BB79FB74FA68BB68C1
S2144054200533DB001344D98807F113030122F868DB
S214405430104CA04702467B6913437B6197F828309F
S21440544063F07F035BB2DBB2FB74FA68BB6805337C
S214405450DB001344198907F113030122F868054C51
S214405460A04702467B6913437B617B6918461C371D
S214405470BD4690BD81C5400090B589B002AFF8608A
S214405480B9603B601346FB7100237B613B68D9B231
S214405490BB6A5BB2FA7900930B46B968F868174C5A
S2144054A0A04702467B6913437B61F868144B9847D4
S2144054B002467B6913437B614EF66020114B98474A
S2144054C0F868114B984702467B6913437B61BA6A7A
S2144054D0FB6A3B21F8680D4CA04702467B691343A4
S2144054E07B61B968F8680A4B984702467B69134364
S2144054F07B617B6918461C37BD4690BDD55340003E
S21440550085564000F9154000B956400055C7400042
S2144055105556400090B587B000AFF860B960114668
S2144055201A460B46FB711346BB7100237B61FB7921
S214405530FB74FA68BB680533DB001344998807F1AF
S21440554013030122F868214CA04702467B691343A7
S2144055507B61BB79FB74FA68BB680533DB00134498
S214405560D98807F113030122F868184CA047024671
S2144055707B6913437B6197F82830FB74FA68BB68F5
S2144055800533DB001344598907F113030122F868F9
S2144055900E4CA04702467B6913437B618123FB7414
S2144055A0FA68BB680533DB001344198907F1130317
S2144055B00122F868054CA04702467B6913437B618D
S2144055C07B6918461C37BD4690BD00BF81C540006C
S2144055D090B589B002AFF860B9603B601346FB7186
S2144055E000237B613B68D9B297F92830FA7900935B
S2144055F00B46B968F868124CA04702467B691343CD
S2144056007B61F8680F4B984702467B6913437B6182
S2144056104EF660200C4B9847F8680C4B984702466D
S2144056207B6913437B61B968F868094B9847024623
S2144056307B6913437B617B6918461C37BD4690BD2A
S2144056401555400085564000F9154000B9564000B3
S2144056505556400080B582B000AF786039607A68B1
S2144056603B680533DB0013441B89002219467868E3
S214405670034B9847034618460837BD4680BD00BFD3
S21440568089C6400080B582B000AF78607B681B7FDB
S21440569043F02003DAB27B681A777B681B7F1A4692
S2144056A003217868034B9847034618460837BD469B
S2144056B080BD00BF89C6400080B582B000AF78602C
S2144056C07B681B7F23F02003DAB27B681A777B68FF
S2144056D01B7F1A4603217868034B984703461846B3
S2144056E00837BD4680BD00BF89C6400080B586B03D
S2144056F000AFF860B9607A6000237B61BB685B10DE
S214405700BB607B6901337B61BB685B10002BF5D1C6
S2144057107B69032B01DC04237B6101227B6902FA4F
S21440572003F31A467B681A607B69DBB21946F86851
S214405730034B9847034618461837BD4680BD00BF02
S214405740D55E400080B483B000AF78607B680022AE
S21440575083F8B82000BF0C37BD465DF8047B704721
S21440576080B582B000AF78607B68012283F8B820AD
S214405770012202217868034B984700BF0837BD4690
S21440578080BD00BFA557400080B483B000AF7860AE
S2144057907B6893F8B83018460C37BD465DF8047BF6
S2144057A07047000080B584B000AF78600B46FB7051
S2144057B01346BB700023FB60FB78012B02D0022B04
S2144057C044D094E0BB78002B20D07B681B7E03F04F
S2144057D00103002B40F088807B689B7E23F04003CB
S2144057E0DAB27B689A767B689B7E1A460621786892
S2144057F0414B9847F8607B681B7E43F00103DAB262
S2144058007B681A7601203D4B98476DE07B681B7E8F
S21440581003F00103002B67D07B689B7E43F0400378
S214405820DAB27B689A767B689B7E1A460621786851
S214405830314B9847F8607B681B7E23F00103DAB251
S2144058407B681A7601202D4B98474DE07B6893F88D
S214405850263003F00103DBB2002B47D0BB78002B89
S21440586022D07868264B98470346002B3ED07B686C
S2144058701B7E03F00203002B38D17B689B7E43F0EF
S2144058802003DAB27B689A767B689B7E1A460621AE
S2144058907868194B9847F8607B681B7E43F0020394
S2144058A0DAB27B681A7621E07B681B7E03F002033F
S2144058B0002B1BD07B689B7E23F02003DAB27B68EC
S2144058C09A767B689B7E1A46062178680A4B9847EC
